:1000000007308A00032F0000FB0000307A078A00C7
:100010007B080D3E03188A0A820000340034003445
:100020000034003400340034003400340034003430
:100030000034003400340034003400340034003420
:1000400000340034C034E034F034F834F834FC3494
:10005000FE34FE34FE34FF34FF34FF34FF34FF340B
:10006000FF34FF34FF34FF34FF34FF347F34FF3478
:100070007F34FF347F34FF347F347F34FF347E3469
:10008000FE34FE34FE34FC34FC34F834F034E03416
:10009000E034803400340034003400340034003460
:1000A00000340034003400340034003400340034B0
:1000B00000340034003400340034003400340034A0
:1000C0000034003400340034003400340034003490
:1000D0000034003400340034003400340034003480
:1000E0000034003400340034003400340734DF348A
:1000F000FF34FF34FF34FF34FF34FF34FF34F73470
:10010000F134F134E034E034603460346034E034AD
:10011000C03400340034003400342034E03460341F
:1001200060346034E0342034603460342134073487
:100130000F341F347F34FF34FF341F340234003453
:10014000003400340034003400340034003400340F
:1001500000340034003400340034003400340034FF
:1001600000340034003400340034003400340034EF
:1001700000340034003400340034003400340034DF
:1001800000340034003400340034003400340034CF
:100190000034003400340034013407340F343F3469
:1001A000FF34FD34F034E034813400340034003462
:1001B000C034F834FC34FF34F234A034A034A0341A
:1001C000003480340034003480340034003400348F
:1001D000003400340034003400340034003403347C
:1001E000013400340034003400340034003400346E
:1001F000003400340034003400340034003400345F
:10020000003400340034003400340034003400344E
:10021000003400340034003400340034003400343E
:1002200000340034003400340034003440340034EE
:1002300040344034C034E034C03460347034F83476
:10024000F83478340C34043400347F34FF34FF3411
:10025000FF34FF34FE34FE34FC34FF34FF34F73413
:10026000F734E434E734C434E634E03460346034E2
:100270002034303410341034083400340034003466
:1002800082342C341034003408343034E034803478
:10029000103410340034003420340034003400347E
:1002A00000340034003400340034003400340034AE
:1002B000003400340034003400340034003400349E
:1002C000003400340034003400340034003400348E
:1002D000003400340034003400340034003404347A
:1002E000033400341E340F3401340034003410342D
:1002F0000034003430347334733473346334E3348F
:10030000C33480348034003400340034003400348A
:1003100000340034803480348034C034C034C0347D
:10032000E034F034F834E034413400340034003444
:1003300000340034013407347C3420340034003479
:10034000003400340034003400340034003400340D
:1003500000340034003400340034003400340034FD
:1003600000343C3478347C347C3478347C347C34D1
:100370007C347C347C343C347C347C347C347C343D
:100380003C347C347C347C343C3438347C347C34B1
:100390003C343C347C347C343C343C347C343C341D
:1003A0007C343C343E343C343D343F343F34FF34C1
:1003B000FF343E341E341C341E341F343F343F346B
:1003C0003F343F343D343D343D343D3438343C34A7
:1003D000783478343C3478347834FC34F8347834F5
:1003E0007834F834F83478347834783478347834AD
:1003F000783478347834783478347834783478349D
:10040000F834F834F034F8347034FB0002307A07F2
:100410008A007B080E3E03188A0A820000340034EA
:1004200000340034F834F83408340834083408341C
:1004300008340834083408340834083408340834DC
:1004400008340834083408340834083408340834CC
:1004500008340834083408340834083408340834BC
:1004600008340834083408340834083408340834AC
:10047000083408340834083408340834083408349C
:10048000083408340834083408340834083408348C
:10049000083408340834083408340834083408347C
:1004A000083408340834083408340834083408346C
:1004B00008340834083408340834F834F834003484
:1004C000003400340034003400340034FF34FF348E
:1004D000003400340034E034E034E034E034E0341C
:1004E000E034E034E034E034E034E034003400342C
:1004F0000034003400348034E034E034E034E0345C
:1005000000340034003400340034E034E034E034AB
:10051000E034E034E034E034E034E034E034E0343B
:10052000E034E03400340034FC34FC34FC341C345B
:10053000003400340034E034E034E034003400347B
:1005400000340034003400340034E034E034E0346B
:1005500000340034003400340034003400340034FB
:100560000034FF34FF3400340034003400340034ED
:1005700000340034FF34FF34003400340034FF34DE
:10058000FF34FF34303430343034303430343034AD
:1005900000340034003400348034E034FC34FF3460
:1005A000DF34C334CF34FF34FF34F834E034003464
:1005B000003400340034003400340034FF34FF349D
:1005C000FF3400340034003400340034003400348C
:1005D000FF34FF34FF340034003400340034FF347F
:1005E000FF34FF343034303430343034303430344D
:1005F0003034FF34FF34FF3400340034003400342E
:1006000000340034003400340034FF34FF3400344C
:10061000003400340034003400340034FF34FF343C
:100620000034003400341F341F341F3400340034CD
:100630000034003400340034003400340034183402
:100640001F341F340F3401340134013401340134B8
:1006500003341F341F341E34183400340034003483
:10066000003400341F341F341F340034003400348D
:1006700000340034003400341F341F341F3400347D
:100680000034003400341F341F341F34003400346D
:10069000003400340034003400341F341F341F345D
:1006A00000340034003400340034003400340034AA
:1006B0000034FF34FF34003400340034003400349C
:1006C00000340034FF34FF3400340034003400348C
:1006D000003400340034003400340034003400347A
:1006E000003400340034003400340034003400346A
:1006F000003400340034003400340034003400345A
:100700000034003400340034003400340034003449
:100710000034003400340034003400340034003439
:100720000034003400340034003400340034003429
:100730000034003400340034003400340034003419
:100740000034003400340034003400340034003409
:1007500000340034003400340034FF34FF340034FB
:100760000034003400340034003400343F343F346B
:100770003034303430343034303430343034303459
:100780003034303430343034303430343034303449
:100790003034303430343034303430343034303439
:1007A0003034303430343034303430343034303429
:1007B0003034303430343034303430343034303419
:1007C0003034303430343034303430343034303409
:1007D00030343034303430343034303430343034F9
:1007E00030343034303430343034303430343034E9
:1007F00030343034303430343034303430343034D9
:1008000030343F343F34003400340034D330F934D2
:10081000EC306E10C432E732721D20102010201010
:100820002010A53A00006F308400831300080319DC
:10083000272C0130F800F701F70B1C2CF80B1B2CB0
:100840004A30F700F70B222C252C800B192C0800BE
:100850008610831686100830AC00AC080319542C9F
:100860008312861283168612352C01302C02F80072
:100870002B08F700F8080319412C0310F70CF80BAC
:100880003D2C77080139031D492C831206124B2C8D
:100890008316831206168316061283128616831693
:1008A0008612522CAC032D2C8312861483168610CC
:1008B000831208008611831686112808AB00831264
:1008C00028240800652C0030662C0130533C031CA2
:1008D0007E2C6C2C00306D2C0130053C031C7E2CD2
:1008E000831626084038A700A80083125A248316CE
:1008F00025088038A700A80083125A240800831610
:10090000A501A6018312622486158316861183121F
:10091000EF01EE016F08013C031C9C2C031D942C7D
:100920006E08F73C031C9C2C8316AB018312282411
:10093000EE0A0319EF0A8A2C8316A501A601831279
:100940006224080006118316061101308312EF009D
:100950001324061583160611831286148316861037
:100960004230F700F70BB22C00002130A8008312B0
:100970005A24A0308316A80083125A2413308316F9
:10098000A80083125A2420308316A80083125A2408
:100990007F243C30EF0013240C308316A800831210
:1009A0005A248A110A12112F8316A501A601831257
:1009B00062248615831686118312EF01EE016F08FB
:1009C000013C031CF62C031DE92C6E08F73C031CAC
:1009D000F62C6F08FA006E080420F0008316AB00B6
:1009E00083122824EE0A0319EF0ADF2C8A110A1257
:1009F000132F8316A501A601831262248615831680
:100A000086118312EF01EE016F08013C031C1B2DC0
:100A1000031D0E2D6E08F73C031C1B2D6F08FA00FA
:100A20006E080522F0008316AB0083122824EE0A1C
:100A30000319EF0A042D8A110A121C2F20088400C2
:100A400083132118831773088000840A8001A00A89
:100A50000319A10A08000B08EF008B138316031774
:100A60008C170C14000000000318572D83120C087B
:100A70007F39F0000D08F1000F08F2007008F30054
:100A800003131E25710803178D0072088F0083164B
:100A90008C170C140000000083120313EE0B512D71
:100AA000542D83160317572D702D831603178312A9
:100AB0000C0D0E0D7F39F0000D08F1000F08F2004B
:100AC0007008F30003131E25710803178D007208C8
:100AD0008F008D0A03198F0A03100313EE0B2E2DBE
:100AE000EF1B8B178A110A12352F7108F80170025B
:100AF00003187D2D7008F700892DF7010830F200EA
:100B0000F00DF70D710877020318F700F80DF20BDE
:100B1000802D080078086E08F0006430F10075251B
:100B20007708EE0078083030031D9D2DEF1CA42DB2
:100B3000EF19A42D6F1A2030A02DEF116F126F1432
:100B4000F8077808F3001E256E08F0000A30F1005F
:100B500075257708EE0078083030031DB52DEF19A4
:100B6000B92D6F1CB92D6F1A2030F8077808F300E3
:100B70001E253030EE076E08F3001E258A110A127A
:100B80003A2F861583168611A901A801A908031D0D
:100B9000DD2D270828020318DD2D250828078400ED
:100BA0008313261883170008AA00AB008312282499
:100BB0008316A80A0319A90AC62D831208006E0815
:100BC000003C031CE52D0030E62D0130063C031CE3
:100BD000102E01306E02F1008316A5017108A600E7
:100BE00083126224861583168611F0018312EF01A9
:100BF000F008031D072E6F08533C031C072E8316B5
:100C0000AB0183122824EF0A0319F00AF82D0130F2
:100C10006E02F1008316A5017108A60083126224FA
:100C20008A110A12462F8615831686112508AB00F5
:100C3000831228240800FC01740876027C02031841
:100C4000552E7C087407FD007D08FE00750883168C
:100C5000A0000130A100A20101302002F700770CB2
:100C6000A300A30CA30C1F30A305013020020739F9
:100C7000A4007E08A5002308A60083126224831620
:100C8000A10803194F2E0130F7002408F8000319BA
:100C90004D2E0310F70DF80B492E7708A2042208F9
:100CA000A50083121326FC0A1C2E08007408730288
:100CB0000319DB2E730874020318642E7308FC00FA
:100CC0007408F3007C08F400FD0101307302F700A2
:100CD000770CFE00FE0CFE0C1F30FE050130730287
:100CE00007398316A0007208A5007E08A6008312AB
:100CF000622483162008F5007508073C031C8E2E1D
:100D00000130F7007508F80003198A2E0310F70D5B
:100D1000F80B862E7708FD04F50A7C2E7D08A500C9
:100D20008312132601307E07F60073087402F83E22
:100D300083162007F700770CA100A10CA10C1F302F
:100D4000A105F501210875020318B62E7208A50049
:100D50007608A60083126224FF308316A500831252
:100D600013260130F607F50A8316A22E7208A50095
:100D70007608A6008312622473087402F83E831674
:100D800020070739A200FD01F501220875020318AA
:100D9000D72E0130F7007508F8000319D32E031081
:100DA000F70DF80BCF2E7708FD04F50AC52E7D0848
:100DB000A5008312132608006E08F2007008F300E5
:100DC0007108F40056266F08F2007008F3007108ED
:100DD000F400562601306E07F200F4007008F500AA
:100DE0006F08F6001B2601306E07F2000130710219
:100DF000F3007208F4007308F5006F08F6001B2674
:100E00008A110A12732FA101A00183161F149F14C7
:100E10001F159F1107309C0083131F308305831219
:100E2000A22CA201D42C0830EE00FA30EF001324DB
:100E3000EE0B152F7F24F92C0830EE00FA30EF006E
:100E40001324EE0B1E2F7F24ED016D0F282F4D2F45
:100E5000A1012230A000063003178D0004308F005E
:100E6000031016300313EE002B2D6D08EE001B301F
:100E7000EF008A2DEF012230EE008A1500288A113A
:100E80006430EF0013240230EE00DF2D8316A5013D
:100E9000A60183126224ED0A252F7F241430F4006A
:100EA000F5005030F6001B260430EE00FA30EF005B
:100EB0001324EE0B562F0A30F2001430F3002D30BD
:100EC000F40056260430EE00FA30EF001324EE0B47
:100ED000642F7F240A30EE003C30EF001430F00025
:100EE0002830F100DC2E0430EE00FA30EF0013243D
:080EF000EE0B752F7A2F630051
:10100000F101F001F3013230F200F501F40175084D
:101010007302031C2128031D11287208740203188F
:1010200021286E087407840083136F1883178008C3
:1010300003191D28F00A0319F10AF40A0319F50A25
:101040000728F601F108031D292870087602031805
:10105000442E76086E07840083136F1883170008E8
:10106000FC007C08FD007D082A3A031901290A3A90
:10107000031916297E3A03192629013A0319392939
:10108000743A03194A29063A03195D29023A0319E9
:101090006E291F3A03198329013A03199829033A43
:1010A0000319AB29013A0319C029073A0319D529B5
:1010B000013A0319EA29033A0319FD29013A0319F0
:1010C000112A0F3A0319262A013A0319392A783AC4
:1010D00003194D2A033A0319602A013A0319732AA6
:1010E000073A0319862A013A03199A2A033A03197F
:1010F000AD2A013A0319C02A0F3A0319D42A013A3A
:101100000319E72A033A0319FA2A013A03190F2BA4
:10111000073A0319242B013A0319362B033A031912
:101120004B2B013A0319602B1F3A0319732B013A19
:101130000319862B033A03199B2B013A0319B02B91
:10114000073A0319C32B013A0319D62B033A0319A3
:10115000E92B013A0319FE2B0F3A0319132C013A1C
:101160000319282C033A03193D2C3B3A0319522C3E
:10117000033A0319652C013A0319792C073A03192C
:101180008C2C013A0319A02C033A0319B32C013A11
:101190000319C82C0F3A0319DB2C013A0319EF2C61
:1011A000033A0319022D013A0319162D073A0319C0
:1011B0002A2D013A03193D2D033A0319522D013A04
:1011C0000319662D1F3A0319792D013A03198C2D45
:1011D000033A0319A02D013A0319B42D073A031954
:1011E000C72D013A0319DC2D033A0319F02D0E3AED
:1011F0000319052E013A03191A2E033A03192D2E4D
:10120000422E14308316A0000830A1003E30A20008
:101210000830A3001430A400A601A030A5000530BA
:10122000A7008A118312C1258A15422E8316A001B8
:10123000A101A201A301A401A601A030A5000530CF
:10124000A7008A118312C1258A15422E0230831607
:10125000A0000530A100A2000230A300A401A60155
:10126000A030A5000530A7008A118312C1258A1578
:10127000422E40308316A000A100A200A300A400CB
:10128000A601A030A5000530A7008A118312C12550
:101290008A15422E08308316A000A1003E30A2001D
:1012A0000830A300A400A601A030A5000530A700C7
:1012B0008A118312C1258A15422E08308316A00098
:1012C000A100A200A300A400A601A030A500053043
:1012D000A7008A118312C1258A15422E2030831659
:1012E000A0001030A1000830A2000430A30002309A
:1012F000A400A601A030A5000530A7008A11831222
:10130000C1258A15422E3E308316A0005130A1001F
:101310004930A2004530A3003E30A400A601A03011
:10132000A5000530A7008A118312C1258A15422E17
:101330008316A0014230A1007F30A2004030A300FC
:10134000A401A601A030A5000530A7008A118312D0
:10135000C1258A15422E42308316A0006130A100BB
:101360005130A2004930A3004630A400A601A030AD
:10137000A5000530A7008A118312C1258A15422EC7
:1013800021308316A0004130A1004530A2004B302F
:10139000A3003130A400A601A030A5000530A700AD
:1013A0008A118312C1258A15422E18308316A00097
:1013B0001430A1001230A2007F30A3001030A4002E
:1013C000A601A030A5000530A7008A118312C1250F
:1013D0008A15422E27308316A0004530A100A200B6
:1013E000A3003930A400A601A030A5000530A70055
:1013F0008A118312C1258A15422E3C308316A00023
:101400004A30A1004930A200A3003030A400A60158
:10141000A030A5000530A7008A118312C1258A15C6
:10142000422E01308316A0007130A1000930A200C5
:101430000530A3000330A400A601A030A5000530AC
:10144000A7008A118312C1258A15422E36308316D1
:10145000A0004930A100A200A3003630A400A601DC
:10146000A030A5000530A7008A118312C1258A1576
:10147000422E06308316A0004930A100A200293078
:10148000A3001E30A400A601A030A5000530A700CF
:101490008A118312C1258A15422E7E308316A00040
:1014A0001130A100A200A3007E30A400A601A0304C
:1014B000A5000530A7008A118312C1258A15422E86
:1014C0007F308316A0004930A100A200A30036306F
:1014D000A400A601A030A5000530A7008A11831240
:1014E000C1258A15422E3E308316A0004130A1004E
:1014F000A200A3002230A400A601A030A500053060
:10150000A7008A118312C1258A15422E7F308316C7
:10151000A0004130A100A2002230A3001C30A40092
:10152000A601A030A5000530A7008A118312C125AD
:101530008A15422E7F308316A0004930A100A200F8
:10154000A3004130A400A601A030A5000530A700EB
:101550008A118312C1258A15422E7F308316A0007E
:101560000930A100A200A3000130A400A601A03010
:10157000A5000530A7008A118312C1258A15422EC5
:101580003E308316A0004130A1004930A200A300E4
:101590007A30A400A601A030A5000530A7008A116A
:1015A0008312C1258A15422E7F308316A000083091
:1015B000A100A200A3007F30A400A601A030A500D6
:1015C0000530A7008A118312C1258A15422E831681
:1015D000A0014130A1007F30A2004130A300A4014E
:1015E000A601A030A5000530A7008A118312C125ED
:1015F0008A15422E20308316A0004030A1004130D1
:10160000A2003F30A3000130A400A601A030A50035
:101610000530A7008A118312C1258A15422E7F301A
:101620008316A0000830A1001430A2002230A300CD
:101630004130A400A601A030A5000530A7008A1102
:101640008312C1258A15422E7F308316A0004030B8
:10165000A100A200A300A400A601A030A5000530AF
:10166000A7008A118312C1258A15422E7F30831666
:10167000A0000230A1000C30A2000230A3007F3095
:10168000A400A601A030A5000530A7008A1183128E
:10169000C1258A15422E7F308316A0000430A10098
:1016A0000830A2001030A3007F30A400A601A030B3
:1016B000A5000530A7008A118312C1258A15422E84
:1016C0003E308316A0004130A100A200A3003E30AE
:1016D000A400A601A030A5000530A7008A1183123E
:1016E000C1258A15422E7F308316A0000930A10043
:1016F000A200A3000630A400A601A030A50005307A
:10170000A7008A118312C1258A15422E3E30831606
:10171000A0004130A1005130A2002130A3005E3072
:10172000A400A601A030A5000530A7008A118312ED
:10173000C1258A15422E7F308316A0000930A100F2
:101740001930A2002930A3004630A400A601A03021
:10175000A5000530A7008A118312C1258A15422EE3
:1017600046308316A0004930A100A200A30031300A
:10177000A400A601A030A5000530A7008A1183129D
:10178000C1258A15422E01308316A000A1007F30AA
:10179000A2000130A300A400A601A030A5000530DE
:1017A000A7008A118312C1258A15422E3F30831665
:1017B000A0004030A100A200A3003F30A400A60179
:1017C000A030A5000530A7008A118312C1258A1513
:1017D000422E1F308316A0002030A1004030A2000E
:1017E0002030A3001F30A400A601A030A5000530C2
:1017F000A7008A118312C1258A15422E3F30831615
:10180000A0004030A1003830A2004030A3003F309B
:10181000A400A601A030A5000530A7008A118312FC
:10182000C1258A15422E63308316A0001430A10012
:101830000830A2001430A3006330A400A601A03039
:10184000A5000530A7008A118312C1258A15422EF2
:1018500007308316A0000830A1007030A2000830C5
:10186000A3000730A400A601A030A5000530A70002
:101870008A118312C1258A15422E61308316A00079
:101880005130A1004930A2004530A3004330A400EC
:10189000A601A030A5000530A7008A118312C1253A
:1018A0008A15422E20308316A0005430A100A200D9
:1018B000A3007830A400A601A030A5000530A70041
:1018C0008A118312C1258A15422E7F308316A0000B
:1018D0004830A1004430A200A3003830A400A60183
:1018E000A030A5000530A7008A118312C1258A15F2
:1018F000422E38308316A0004430A100A200A3007D
:101900002030A400A601A030A5000530A7008A1150
:101910008312C1258A15422E38308316A000443028
:10192000A100A2004830A3007F30A400A601A0308F
:10193000A5000530A7008A118312C1258A15422E01
:1019400038308316A0005430A100A200A300183044
:10195000A400A601A030A5000530A7008A118312BB
:10196000C1258A15422E08308316A0007E30A100C2
:101970000930A2000130A3000230A400A601A0306B
:10198000A5000530A7008A118312C1258A15422EB1
:101990000C308316A0005230A100A200A3003E30FC
:1019A000A400A601A030A5000530A7008A1183126B
:1019B000C1258A15422E7F308316A0000830A10071
:1019C0000430A200A3007830A400A601A030A50036
:1019D0000530A7008A118312C1258A15422E83166D
:1019E000A0014430A1007D30A2004030A300A4013A
:1019F000A601A030A5000530A7008A118312C125D9
:101A00008A15422E20308316A0004030A1004430B9
:101A1000A2003D30A300A401A601A030A50005301E
:101A2000A7008A118312C1258A15422E7F308316A2
:101A3000A0001030A1002830A2004430A300A4016F
:101A4000A601A030A5000530A7008A118312C12588
:101A50008A15422E8316A0014130A1007F30A200DA
:101A60004030A300A401A601A030A5000530A700C6
:101A70008A118312C1258A15422E7C308316A0005C
:101A80000430A1001830A2000430A3007830A40074
:101A9000A601A030A5000530A7008A118312C12538
:101AA0008A15422E7C308316A0000830A100043035
:101AB000A200A3007830A400A601A030A500053044
:101AC000A7008A118312C1258A15422E3830831649
:101AD000A0004430A100A200A3003830A400A60159
:101AE000A030A5000530A7008A118312C1258A15F0
:101AF000422E7C308316A0001430A100A200A30067
:101B00000830A400A601A030A5000530A7008A1166
:101B10008312C1258A15422E08308316A000143086
:101B2000A100A2001830A3007C30A400A601A030C0
:101B3000A5000530A7008A118312C1258A15422EFF
:101B40007C308316A0000830A1000430A200A3005E
:101B50000830A400A601A030A5000530A7008A1116
:101B60008312C1258A15422E48308316A0005430B6
:101B7000A100A200A3002030A400A601A030A5006F
:101B80000530A7008A118312C1258A15422E043020
:101B90008316A0003F30A1004430A2004030A300D3
:101BA0002030A400A601A030A5000530A7008A11AE
:101BB0008312C1258A15422E3C308316A000403086
:101BC000A100A2002030A3007C30A400A601A03018
:101BD000A5000530A7008A118312C1258A15422E5F
:101BE0001C308316A0002030A1004030A20020301D
:101BF000A3001C30A400A601A030A5000530A7005A
:101C00008A118312C1258A15422E44308316A00002
:101C10002830A1001030A2002830A3004430A400D6
:101C2000A601A030A5000530A7008A118312C125A6
:101C30008A15422E0C308316A0005030A100A2005D
:101C4000A3003C30A400A601A030A5000530A700E9
:101C50008A118312C1258A15422E44308316A000B2
:101C60006430A1005430A2004C30A3004430A400E2
:101C7000A601A030A5000530A7008A118312C12556
:0E1C80008A15422EF60A22288A110A123F2FD8
:02400E00393F38
:00000001FF
;PIC16F877A
;CRC=D481  CREATED="17-Oca-21 19:08"
